:100000000C9464000C9412100C943F100C948C000F
:100010000C948C000C948C000C948C000C948C0030
:100020000C948C000C948C000C948C000C948C0020
:100030000C948C000C948C000C948C000C948C0010
:100040000C94881A0C948C000C946C100C948C00FA
:100050000C948C000C948C000C948C000C948C00F0
:100060000C948C000C948C000000000024002700ED
:100070002A0000000000250028002B0000000000DE
:1000800023002600290004040404040404040202DA
:100090000202020203030303030301020408102007
:1000A0004080010204081020010204081020000012
:1000B0000007000201000003040600000000000029
:1000C0000000AE0D93153A1711241FBECFEFD8E0F4
:1000D000DEBFCDBF12E0A0E0B1E0EAE9F9E302C083
:1000E00005900D92A432B107D9F713E0A4E2B2E073
:1000F00001C01D92AF30B107E1F710E0C8ECD0E0CD
:1001000004C02297FE010E94C71CC23CD107C9F758
:100110000E9411170C94CB1C0C940000EF92FF92DC
:100120000F93DF93CF93CDB7DEB760970FB6F894F8
:10013000DEBF0FBECDBFA82F002309F461C07E0132
:100140000894E11CF11C88E0F70111928A95E9F707
:1001500029833A834B835C836D837E83AF83988747
:1001600080E2801BE82FFF27E7FDF09549815A8147
:100170006B817C81181684F019861A861B861C8672
:10018000882799278E1B9F0B04C0440F551F661F9D
:10019000771F8A95D2F728C0202F332727FD309567
:1001A000DB01CA01022E04C0880F991FAA1FBB1FC2
:1001B0000A94D2F789879A87AB87BC8704C0769563
:1001C000679557954795EA95D2F78D819E81AF81C6
:1001D000B88504C0880F991FAA1FBB1F2A95D2F7A4
:1001E000482B592B6A2B7B2B4D875E876F87788B2B
:1001F00029853A854B855C856D857E85AF85988997
:100200008A2F60960FB6F894DEBF0FBECDBFCF9198
:10021000DF910F91FF90EF900895EF92FF920F936F
:10022000DF93CF93CDB7DEB760970FB6F894DEBFFC
:100230000FBECDBFA82F002309F467C07E0108942C
:10024000E11CF11C88E0F70111928A95E9F72983F6
:100250003A834B835C836D837E83AF83988780E290
:10026000801B4D815E816F817885E82FFF27E7FD38
:10027000F0951816B4F0DB01CA01BB0F880B982F5C
:10028000DC018D879E87AF87B88B882799278E1BC7
:100290009F0B04C075956795579547958A95D2F73A
:1002A00028C0202F332727FD3095DB01CA01022EFD
:1002B00004C0B595A795979587950A94D2F78D8731
:1002C0009E87AF87B88B04C0440F551F661F771FEA
:1002D000EA95D2F789819A81AB81BC8104C0B69539
:1002E000A795979587952A95D2F7482B592B6A2B76
:1002F0007B2B49875A876B877C8729853A854B8575
:100300005C856D857E85AF8598898A2F60960FB64E
:10031000F894DEBF0FBECDBFCF91DF910F91FF905C
:10032000EF900895A2E7B0E0E8E9F1E00C948E1CAC
:10033000982E892E712E88E0FE013196DF01682EFD
:100340001D926A94E9F729833A834B835C836D831A
:100350007E839F829887FE013996DF011D928A95E0
:10036000E9F7A986BA86CB86DC86ED86FE860F87FE
:10037000188B8D819E81AF81B885B7FD07C0E1964E
:100380001CAE1DAE1EAE1FAEE19764C0219581E08C
:10039000121608F080E0319591E0131608F090E015
:1003A000B32FB81B81E03B1708F080E0982B4195F4
:1003B00031E0141608F030E0A42FA91B81E04A17A1
:1003C00008F080E0382B519591E0151608F090E088
:1003D000F52FF31B81E05F1708F080E0982B619503
:1003E00031E0161608F030E0E62FE91B81E06E17C9
:1003F00008F080E0382B719541E0171608F040E0D6
:10040000572F531B81E0751708F080E0482B892D8A
:10041000819591E0181608F090E0682E641A462D38
:1004200031E0861508F030E0932B882D8195891BEB
:100430002983BA83AB83FC83ED835E834F838887F4
:100440002FEF3FEF4FEF5FEFE1962CAF3DAF4EAF99
:100450005FAFE1978D859E85AF85B889B7FF6AC08C
:10046000E1964CAD5DAD6EAD7FADE1974095509599
:1004700060957095E1964CAF5DAF6EAF7FAFE19741
:10048000A19481E01A1408F080E0B19491E01B146B
:1004900008F090E06B2D681B81E0B61608F080E054
:1004A000982BC19421E01C1408F020E05C2D591B0E
:1004B00081E0C51608F080E0282BD19491E01D144E
:1004C00008F090E04D2D421B81E0D41608F080E04A
:1004D000982BE19421E01E1408F020E03E2D391BFA
:1004E00081E0E31608F080E0282BF19491E01F14DE
:1004F00008F090E07F2D721B272F81E0F71608F09F
:1005000080E0982B019511E0101608F010E0802F84
:10051000891B982F81E0091708F080E0182B872DA0
:100520008195811BA9866A875B874C873D872E87CB
:100530009F87888B99812A813B814C815D816E8167
:100540007F81A885B9851A850B85FC84ED84DE84BE
:10055000CF84B88888E0E1E18E2E912C8C0E9D1E10
:10056000F401682E11926A94E9F7998B2A8B3B8BE0
:100570004C8B5D8B6E8B7F8BA88F9E01275E3F4FD0
:10058000F90111928A95E9F7B98F1A8F0B8FFC8EBA
:10059000ED8EDE8ECF8EB8A2298C3A8C4B8C5C8C83
:1005A000ED8CFE8C0F8D18A169887A888B889C88C9
:1005B00021966CAE7DAE8EAE9FAE21976D887E8803
:1005C0008F88988CE114F1040105110509F0D9C355
:1005D000621473048404950408F057C100E02016E7
:1005E00000E0300601E0400600E0500688F41FEF0E
:1005F000211631044104510439F030F048E0E42E72
:10060000F12C012D112D18C0EE24FF24870114C0F8
:1006100020E0221620E0320620E0420621E05206C9
:1006200030F038E1E32EF12C012D112D05C020E131
:10063000E22EF12C012D112DD201C1010E2C04C08E
:10064000B695A795979587950A94D2F78F5E9E4F9A
:10065000DC012C9180E290E0A0E0B0E08E199F09CF
:10066000A00BB10B7C018D01E21AF10801091109FF
:10067000E114F10401051105D1F10E2C04C0220C86
:10068000331C441C551C0A94D2F7A40193010E2C70
:1006900004C0220F331F441F551F0A94D2F780E273
:1006A00090E08E199F0921966CAC7DAC8EAC9FAC0E
:1006B000219704C096948794779467948A95D2F78B
:1006C000622A732A842A952A2196ACACBDACCEACA2
:1006D000DFAC219704C0AA0CBB1CCC1CDD1CEA9427
:1006E000D2F72196ACAEBDAECEAEDFAE21976201A1
:1006F000EE24FF242996CCAEDDAEEEAEFFAE2997F8
:1007000092018101207030702D960CAF1DAF2EAF7D
:100710003FAF2D97C401B301A70196010E941E1C93
:100720007B018C01C401B30129962CAD3DAD4EADCA
:100730005FAD29970E941E1CC901DA013C014D01E1
:10074000C401B3012D962CAD3DAD4EAD5FAD2D97DF
:100750000E945B1C9B01AC018701FF24EE242196C3
:10076000ACACBDACCEACDFAC2197C601AA27BB2791
:1007700057016801A82AB92ACA2ADB2AA216B30699
:10078000C406D506E0F40894610871088108910850
:10079000A20CB31CC41CD51CA214B304C404D504FD
:1007A00070F0A216B306C406D50648F40894610892
:1007B000710881089108A20CB31CC41CD51CA21A94
:1007C000B30AC40AD50AC601B50129962CAD3DADC0
:1007D0004EAD5FAD29970E941E1C7B018C01C601A6
:1007E000B50129962CAD3DAD4EAD5FAD29970E9468
:1007F0001E1CC901DA015C016D01C601B5012D960F
:100800002CAD3DAD4EAD5FAD2D970E945B1C9B01A5
:10081000AC018701FF24EE2421968CAD9DADAEADD9
:10082000BFAD2197A070B070E82AF92A0A2B1B2BC4
:10083000E216F30604071507C0F40894A108B108EE
:10084000C108D108E20CF31C041D151DE214F304C9
:100850000405150550F0E216F3060407150728F401
:100860000894A108B108C108D108D30199278827A5
:1008700086017501E82AF92A0A2B1B2B2596ECAE76
:10088000FDAE0EAF1FAF2597EBC421143104410418
:10089000510471F461E070E080E090E020E030E02D
:1008A00040E050E00E941E1CC901DA011C012D012C
:1008B00000E0201600E0300601E0400600E05006AF
:1008C00088F41FEF211631044104510431F028F05F
:1008D00048E050E060E070E017C040E050E060E0C9
:1008E00070E012C020E0221620E0320620E042062E
:1008F00021E0520628F048E150E060E070E004C0DA
:1009000040E150E060E070E0D201C101042E04C07B
:10091000B695A795979587950A94D2F78F5E9E4FC7
:10092000DC012C91E0E2EE2EF12C012D112DD801ED
:10093000C701841B950BA60BB70B821B9109A1095C
:10094000B1090097A105B10561F464015301A21832
:10095000B308C408D50831E0632E712C812C912C8A
:1009600024C1E3968FAFE397082E04C0220C331CFA
:10097000441C551C0A94D2F7EE2DE81B6401530168
:100980000E2E04C0D694C794B794A7940A94D2F7B5
:10099000A4019301E3960FACE39704C0220F331F29
:1009A000441F551F0A94D2F721966CAC7DAC8EACD7
:1009B0009FAC21970E2E04C09694879477946794E9
:1009C0000A94D2F784017301E22AF32A042B152B2F
:1009D000E9AEFAAE0BAF1CAF320188249924920124
:1009E00081012070307061960CAF1DAF2EAF3FAF0C
:1009F0006197C601B501A40193010E941E1C7B01F1
:100A00008C01C601B501A40193010E941E1CC901FD
:100A1000DA0165968CAF9DAFAEAFBFAF6597BC01F5
:100A2000CD0161962CAD3DAD4EAD5FAD61970E949D
:100A30005B1C9B01AC018701FF24EE24A9ACBAAC7E
:100A4000CBACDCACC601AA27BB275C016D01AE288C
:100A5000BF28C02AD12AA216B306C406D50660F55F
:100A600065966CAD7DAD8EAD9FAD65976150704064
:100A70008040904065966CAF7DAF8EAF9FAF65971D
:100A8000A20CB31CC41CD51CA214B304C404D5040A
:100A900098F0A216B306C406D50670F461507040F3
:100AA0008040904065966CAF7DAF8EAF9FAF6597ED
:100AB000A20CB31CC41CD51CA21AB30AC40AD50AC2
:100AC000C601B501A40193010E941E1C7B018C018B
:100AD000C601B501A40193010E941E1CC901DA01DF
:100AE0003C014D01C401B30161962CAD3DAD4EAD4D
:100AF0005FAD61970E945B1C9B01AC018701FF24E5
:100B0000EE2489AD9AADABADBCADA070B07057010D
:100B10006801A82AB92ACA2ADB2AA216B306C40683
:100B2000D506E0F408946108710881089108A20CC8
:100B3000B31CC41CD51CA214B304C404D50470F0A7
:100B4000A216B306C406D50648F4089461087108D5
:100B500081089108A20CB31CC41CD51C21968CAD35
:100B60009DADAEADBFAD2197E3960FACE39704C04A
:100B7000880F991FAA1FBB1F0A94D2F721968CAF2A
:100B80009DAFAEAFBFAF2197A21AB30AC40AD50A70
:100B90006596ECACFDAC0EAD1FAD6597D7019927FE
:100BA0008827682A792A8A2A9B2A820122273327C2
:100BB00069960CAF1DAF2EAF3FAF6997A2019101AF
:100BC000407050706D962CAF3DAF4EAF5FAF6D97DC
:100BD000C601B50169962CAD3DAD4EAD5FAD6997CF
:100BE0000E941E1C7B018C01C601B50169962CADCB
:100BF0003DAD4EAD5FAD69970E941E1CC901DA0183
:100C0000A1968CAF9DAFAEAFBFAFA197BC01CD0198
:100C10006D962CAD3DAD4EAD5FAD6D970E945B1CEA
:100C20009B01AC018701FF24EE242196ACACBDAC46
:100C3000CEACDFAC2197C601AA27BB2757016801BC
:100C4000A82AB92ACA2ADB2AA216B306C406D506E0
:100C500060F5A1966CAD7DAD8EAD9FADA197615055
:100C6000704080409040A1966CAF7DAF8EAF9FAF3B
:100C7000A197A20CB31CC41CD51CA214B304C404B9
:100C8000D50498F0A216B306C406D50670F46150D8
:100C9000704080409040A1966CAF7DAF8EAF9FAF0B
:100CA000A197A20CB31CC41CD51CA21AB30AC40A77
:100CB000D50AC601B50169962CAD3DAD4EAD5FAD0F
:100CC00069970E941E1C7B018C01C601B5016996C3
:100CD0002CAD3DAD4EAD5FAD69970E941E1CC901A4
:100CE000DA015C016D01C601B5016D962CAD3DAD1B
:100CF0004EAD5FAD6D970E945B1C9B01AC018701FF
:100D0000FF24EE2421968CAD9DADAEADBFAD2197F5
:100D1000A070B070E82AF92A0A2B1B2BE216F30602
:100D200004071507C0F40894A108B108C108D10848
:100D3000E20CF31C041D151DE214F3040405150553
:100D400050F0E216F3060407150728F40894A108EA
:100D5000B108C108D108A196ECACFDAC0EAD1FAD39
:100D6000A197D7019927882796018501082B192B70
:100D70002A2B3B2B25960CAF1DAF2EAF3FAF2597EF
:100D800072C26E147F048006910608F45FC220E0F0
:100D9000E21620E0F20621E0020720E0120788F4C4
:100DA0003FEFE316F1040105110531F028F048E0AA
:100DB00050E060E070E017C040E050E060E070E0BC
:100DC00012C040E0E41640E0F40640E0040741E0D1
:100DD000140728F048E150E060E070E004C040E112
:100DE00050E060E070E0D801C701042E04C0B69561
:100DF000A795979587950A94D2F78F5E9E4FDC0151
:100E00002C9130E2A32EB12CC12CD12CD601C501DE
:100E1000841B950BA60BB70B821B9109A109B10985
:100E20000097A105B10599F4E614F7040805190522
:100E300008F4FEC121966CAC7DAC8EAC9FAC2197C2
:100E4000621473048404950408F0F2C1FFC1E296B1
:100E50008FAFE297082E04C0EE0CFF1C001F111F7D
:100E60000A94D2F76A2D681BD201C101062E04C074
:100E7000B695A795979587950A94D2F75C016D0171
:100E8000AE28BF28C02AD12AADAABEAACFAAD8AE02
:100E900072016101E2960FACE29704C0CC0CDD1C3C
:100EA000EE1CFF1C0A94D2F7C9AADAAAEBAAFCAA84
:100EB00064015301062E04C0D694C794B794A79436
:100EC0000A94D2F7D401C301E2960FACE29704C0B2
:100ED000880F991FAA1FBB1F0A94D2F72196ECAC6A
:100EE000FDAC0EAD1FAD219704C016950795F79484
:100EF000E7946A95D2F737014801682A792A8A2A45
:100F00009B2A6DA67EA68FA698AAEDA8FEA80FA97B
:100F100018AD380188249924980187012070307019
:100F2000A5960CAF1DAF2EAF3FAFA597C601B5017B
:100F3000A40193010E941E1C7B018C01C601B50116
:100F4000A40193010E941E1CC901DA011C012D019C
:100F5000C201B101A5962CAD3DAD4EAD5FADA597DB
:100F60000E945B1C9B01AC018701FF24EE24ADA411
:100F7000BEA4CFA4D8A8C601AA27BB2757016801E1
:100F8000A82AB92ACA2ADB2AA216B306C406D5069D
:100F900000F508942108310841085108EDA8FEA881
:100FA0000FA918ADAE0CBF1CC01ED11EAE14BF04DD
:100FB000C006D10670F0A216B306C406D50648F4E2
:100FC00008942108310841085108AE0CBF1CC01E0E
:100FD000D11EA21AB30AC40AD50AC601B501A401DA
:100FE00093010E941E1C7B018C01C601B501A40166
:100FF00093010E941E1CC901DA013C014D01C4018C
:10100000B301A5962CAD3DAD4EAD5FADA5970E9449
:101010005B1C9B01AC018701FF24EE248DA59EA5DE
:10102000AFA5B8A9A070B07057016801A82AB92A65
:10103000CA2ADB2AA216B306C406D50600F5089410
:1010400061087108810891086DA97EA98FA998ADE2
:10105000A60EB71EC81ED91EA616B706C806D90604
:1010600070F0A216B306C406D50648F408946108C9
:10107000710881089108A60EB71EC81ED91ED60198
:10108000C501821B930BA40BB50B89A79AA7ABA72D
:10109000BCA7D1019927882764015301A82AB92A3E
:1010A000CA2ADB2A2596ACAEBDAECEAEDFAE259702
:1010B000860175012FEF3FEF40E050E0E222F3227E
:1010C00004231523A60166277727AD964CAF5DAFA5
:1010D0006EAF7FAFAD97A9A8BAA8CBA8DCA86FEF79
:1010E0007FEF80E090E0A622B722C822D92289A90A
:1010F0009AA9ABA9BCA91D0144245524C801B70174
:10110000A60195010E945B1CA9966CAF7DAF8EAFC6
:101110009FAFA997C801B701A20191010E945B1C72
:101120003B014C01AD966CAD7DAD8EAD9FADAD97E5
:10113000A60195010E945B1C7B018C01AD966CADF4
:101140007DAD8EAD9FADAD97A20191010E945B1C5C
:101150005B016C01A8019701260D371D481D591D23
:10116000A9966CAC7DAC8EAC9FACA997C401AA27A4
:10117000BB27280F391F4A1F5B1F2E153F0540074D
:10118000510748F4E12CF12C61E0062F112DAE0C33
:10119000BF1CC01ED11ECA01AA27BB27BC01CD019E
:1011A0006A0D7B1D8C1D9D1D69A47AA48BA49CA433
:1011B000661677068806990650F166157705880544
:1011C000990509F04DC0D90199278827A9962CAD1A
:1011D0003DAD4EAD5FADA99740705070820F931F2B
:1011E000A41FB51F21962CAD3DAD4EAD5FAD21972F
:1011F000E2960FACE29704C0220F331F441F551F25
:101200000A94D2F7281739074A075B0748F525964D
:101210000CAD1DAD2EAD3FAD2597015010402040C7
:10122000304025960CAF1DAF2EAF3FAF259718C0AD
:1012300066247724430121E030E040E050E0259629
:101240002CAF3DAF4EAF5FAF25970DC0662477241E
:10125000430125961CAE1DAE1EAE1FAE259703C0E2
:10126000662477244301FE01B19688E0DF011D92D8
:101270008A95E9F72596ACACBDACCEACDFAC259732
:10128000A9A2BAA2CBA2DCA26DA27EA28FA298A62E
:1012900022962FAD22973AA14BA15CA1662D7EA18B
:1012A000DFA098A5E196ECACFDAC0EAD1FADE197CB
:1012B000E114F1040105110509F456C0219581E0FE
:1012C000121608F080E03195E1E0131608F0E0E036
:1012D000932E981A81E0391508F080E0E82B4195AB
:1012E000F1E0141608F0F0E0A42EAE1A81E04A15E1
:1012F00008F080E0F82B5195E1E0151608F0E0E0E9
:10130000B52EBF1A81E05B1508F080E0E82B6195EF
:10131000F1E0161608F0F0E0A62FAE1B81E06A1788
:1013200008F080E0F82B7195E1E0171608F0E0E096
:10133000C72ECF1A81E07C1508F080E0E82B8D2DB8
:101340008195F1E0181608F0F0E0D82EDE1AE1E001
:101350008D1508F0E0E0FE2B892F8195392DA50130
:101360006A2F7C2D982F9F1B8D2DCE58DF4FE2E1E9
:101370000C94AA1CA0E2B0E0E0ECF9E00C948E1C06
:1013800069837A838B839C832D833E834F83588725
:10139000CE010196BE01675F7F4F0E94360DCE01E0
:1013A0000596BE016F5E7F4F0E94360D9985923083
:1013B00088F089898230C8F0943019F4823051F471
:1013C00004C0843029F4923081F489E091E0C6C0F1
:1013D000923049F420E09A858A89981321E02A877F
:1013E000CE010996BBC0823049F420E09A858A89F3
:1013F000981321E02A8BCE014196B0C02D843E8403
:101400004F8458886D887E888F88988CEE24FF24BE
:101410008701AA24BB24650140E050E060E070E051
:10142000E0E0F0E0C10181709070892BE9F0E60CFA
:10143000F71C081D191D9A01AB012A0D3B1D4C1DFF
:101440005D1D80E090E0A0E0B0E0E614F704080540
:10145000190520F481E090E0A0E0B0E0BA01A90114
:10146000480F591F6A1F7B1FAA0CBB1CCC1CDD1C1C
:1014700097FE08C081E090E0A0E0B0E0A82AB92A79
:10148000CA2ADB2A3196E032F10549F0660C771C56
:10149000881C991C5694479437942794C3CFFA8597
:1014A000EA892B893C898B859C85280F391F2E5F03
:1014B0003F4F17C0CA0181709070892B61F016955B
:1014C0000795F794E79480E090E0A0E0B0E8E82A80
:1014D000F92A0A2B1B2B76956795579547952F5F11
:1014E0003F4F77FDE7CF0CC0440F551F661F771F96
:1014F00017FD4160EE0CFF1C001F111F21503040F2
:10150000403090E0590790E0690790E4790760F374
:101510002B8F3C8FDB01CA018F779070A070B07069
:1015200080349105A105B10561F447FD0AC0E114BD
:10153000F1040105110529F0405C5F4F6F4F7F4FAB
:1015400040781A8EFE1711F081E08A8F4D8F5E8FE2
:101550006F8F78A383E0898FCE0149960E94610C3A
:10156000A096E2E10C94AA1CA8E1B0E0EAEBFAE054
:101570000C94961C69837A838B839C832D833E8392
:101580004F835887B9E0EB2EF12CEC0EFD1ECE01F7
:101590000196B7010E94360D8E010F5E1F4FCE01DE
:1015A0000596B8010E94360D2985223008F47EC0C8
:1015B0003989323010F4B8017CC08A859A8989272C
:1015C0008A87243011F0223031F4231709F06EC0DD
:1015D00069E071E06EC0343039F41D861E861F86C6
:1015E000188A1C861B8604C0323021F484E0898767
:1015F000B7015FC02B853C858B899C89281B390BE3
:101600003C872B87ED84FE840F851889AD88BE88C2
:10161000CF88D88CEA14FB040C051D0540F4EE0CB1
:10162000FF1C001F111F215030403C872B8720E0FA
:1016300030E040E050E080E090E0A0E0B0E460E026
:1016400070E0EA14FB040C051D0540F0282B392B33
:101650004A2B5B2BEA18FB080C091D09B695A795C8
:1016600097958795EE0CFF1C001F111F6F5F7F4F32
:101670006F31710531F7DA01C9018F779070A07071
:10168000B07080349105A105B10561F427FD0AC051
:10169000E114F1040105110529F0205C3F4F4F4F83
:1016A0005F4F20782D873E874F87588BBE01675F3D
:1016B0007F4FCB010E94610C6896EAE00C94B21C4B
:1016C000A8E0B0E0E6E6FBE00C94971C9B01AC01BF
:1016D00083E08983DA01C9018827B7FD83959927BB
:1016E000AA27BB27B82E211531054105510519F44C
:1016F00082E089833AC08823A9F0203080E038074F
:1017000080E0480780E8580729F460E070E080E056
:101710009FEC30C0EE24FF248701E21AF30A040B89
:10172000150B02C079018A018EE1C82ED12CDC8212
:10173000CB82ED82FE820F831887C801B7010E9419
:10174000120C01971816190684F4082E04C0EE0C2A
:10175000FF1C001F111F0A94D2F7ED82FE820F8337
:101760001887C81AD90ADC82CB82BA82CE010196C8
:101770000E94610C2896E9E00C94B31CACE0B0E048
:10178000E4ECFBE00C949E1C69837A838B839C833E
:10179000CE010196BE016B5F7F4F0E94360D8D8199
:1017A000823061F1823050F1843021F48E818823BF
:1017B00051F12EC02F81388537FD20C06E812F3129
:1017C00031051CF06623F9F023C08EE190E0821B06
:1017D000930B29853A854B855C8504C056954795C2
:1017E000379527958A95D2F76623B1F050954095A5
:1017F000309521953F4F4F4F5F4F0EC020E030E0B6
:1018000040E050E009C02FEF3FEF4FEF5FE704C02B
:1018100020E030E040E050E8B901CA012C96E2E057
:101820000C94BA1CEF92FF920F931F937B018C01D3
:1018300080E0E81680E0F80681E0080780E01807FD
:1018400088F48FEFE816F1040105110531F028F056
:1018500088E090E0A0E0B0E017C080E090E0A0E079
:10186000B0E012C080E0E81680E0F80680E00807EB
:1018700081E0180728F088E190E0A0E0B0E004C023
:1018800080E190E0A0E0B0E020E230E040E050E015
:10189000281B390B4A0B5B0B04C016950795F79470
:1018A000E7948A95D2F7F701EF5EFE4F8081281BFF
:1018B000310941095109C9011F910F91FF90EF9022
:1018C0000895DF92EF92FF920F931F93FC01E48043
:1018D000F58006811781D1808081823048F480E0D4
:1018E00090E0A0E1B0E0E82AF92A0A2B1B2BA5C062
:1018F000843009F49FC0823021F4EE24FF24870154
:1019000005C0E114F1040105110519F4E0E0F0E06F
:1019100096C0628173819FEF623879070CF05BC0DB
:1019200022E83FEF261B370B2A3131052CF020E04F
:1019300030E040E050E02AC0B801A701022E04C008
:1019400076956795579547950A94D2F781E090E090
:10195000A0E0B0E004C0880F991FAA1FBB1F2A9502
:10196000D2F70197A109B1098E219F21A023B123AC
:101970000097A105B10521F081E090E0A0E0B0E082
:101980009A01AB01282B392B4A2B5B2BDA01C901B9
:101990008F779070A070B07080349105A105B1056B
:1019A00039F427FF09C0205C3F4F4F4F5F4F04C001
:1019B000215C3F4F4F4F5F4FE0E0F0E02030A0E070
:1019C0003A07A0E04A07A0E45A0710F0E1E0F0E08F
:1019D00079018A0127C06038710564F5FB01E1587F
:1019E000FF4FD801C7018F779070A070B07080341E
:1019F0009105A105B10539F4E7FE0DC080E490E042
:101A0000A0E0B0E004C08FE390E0A0E0B0E0E80E1A
:101A1000F91E0A1F1B1F17FF05C016950795F7949F
:101A2000E794319687E016950795F794E7948A95A1
:101A3000D1F705C0EE24FF248701EFEFF0E06E2F11
:101A4000679566276795902F9F77D794DD24D79465
:101A50008E2F8695492F462B582F5D29B701CA0135
:101A60001F910F91FF90EF90DF900895FC01DB0133
:101A7000408151812281622F6F7770E0221F2227DF
:101A8000221F9381892F880F822B282F30E0991FE6
:101A90009927991F11969C93119721153105A9F546
:101AA000411551056105710511F482E037C082E8E6
:101AB0009FEF13969C938E9312979A01AB0167E068
:101AC000220F331F441F551F6A95D1F783E08C9373
:101AD0000DC0220F331F441F551F12968D919C91EC
:101AE0001397019713969C938E931297203080E062
:101AF000380780E0480780E4580758F314962D9380
:101B00003D934D935C93179708952F3F310579F4DA
:101B1000411551056105710519F484E08C93089510
:101B200064FF03C081E08C9312C01C9210C02F5739
:101B3000304013963C932E93129783E08C9387E06A
:101B4000440F551F661F771F8A95D1F7706414964E
:101B50004D935D936D937C93179708958DE392E079
:101B60000E94181788E492E00E94181788EC90E011
:101B700090933A02809339028DE392E068EC70E032
:101B800042E00E94281A6091390270913A0288E47A
:101B900092E041E00E94281A83EC95EFA8E8B0E4B7
:101BA0008093250290932602A0932702B0932802E7
:101BB00080E090E0A8E1B0E480933102909332029B
:101BC000A0933302B093340283EE92E2A7E5B1E42E
:101BD0008093290290932A02A0932B02B0932C02A7
:101BE00084ED92ECAEEEB0E480932D0290932E0241
:101BF000A0932F02B09330026091390270913A02A3
:101C0000882777FD8095982F0E94600B9B01AC017F
:101C100064ED72EC8EEE90E40E94B40A609335029B
:101C200070933602809337029093380210925402D8
:101C30001092530281E090E09093560280935502F7
:101C4000109258021092570210926402109263028E
:101C5000E9E5F2E010821582319682E0EE35F80770
:101C6000C9F781E0838310860895CF92DF92EF92C7
:101C7000FF920F931F93CF93DF938C01CB01BA0197
:101C800020E030E044EB53E40E94B40AF8012581DF
:101C90003681478150850E94BA09F801218932892D
:101CA000438954890E94B40A0E94BE0BEB0199E15A
:101CB000C92ED12CC00ED11E84E2E82EF12CE00EEC
:101CC000F11EF8018081882391F0209781F02197FF
:101CD000C60161E070E041E022E00E943219C701D4
:101CE00061E070E042E022E00E943219EACFDF9129
:101CF000CF911F910F91FF90EF90DF90CF900895BB
:101D0000CF92DF92EF92FF920F931F93CF93DF93C7
:101D10008C01CB01BA01F8012189328943895489A8
:101D20000E94B40A0E94BE0BEB0139E1C32ED12CF4
:101D3000C00ED11E24E2E22EF12CE00EF11EF801BD
:101D40008081882391F0209781F02197C60161E07E
:101D500070E042E022E00E943219C70161E070E0C9
:101D600042E022E00E943219EACFDF91CF911F9129
:101D70000F91FF90EF90DF90CF900895CF92DF9278
:101D8000EF92FF920F931F93CF93DF938C01CB01C0
:101D9000BA0120E030E044EB53E40E94B40AF801B9
:101DA00025813681478150850E94BA09F801218931
:101DB0003289438954890E94B40A0E94BE0BEB0108
:101DC00059E1C52ED12CC00ED11E44E2E42EF12CD7
:101DD000E00EF11EF8018081882391F0209781F0B8
:101DE0002197C60161E070E042E022E00E943219D2
:101DF000C70161E070E041E022E00E943219EACFC1
:101E0000DF91CF911F910F91FF90EF90DF90CF90D6
:101E100008950F931F938C01FC01108249960E9434
:101E2000EF19C80184960E94EF191F910F91089530
:101E300081EF92E066E070E040E050E00E94DC1646
:101E400081EF92E06CE070E040E050E00E94DC1630
:101E500081EF92E066E670E040E050E00E94DC1620
:101E600081EF92E060E071E00E94041680916802C8
:101E7000882309F445C080916702882309F040C097
:101E800084E292E040E050E060E071E40E94800E65
:101E900084E292E040E050E064EB72E40E94BE0E07
:101EA00084E292E040E050E060E071E40E94800E45
:101EB00084E292E040E050E064EB72E40E94350E70
:101EC00084E292E040E050E060E471E40E94800E21
:101ED00084E292E040E050E064EB72E40E94350E50
:101EE00084E292E040E050E060E471E40E94800E01
:101EF00084E292E040E050E064EB72E40E94BE0EA7
:101F000084E292E00E94090F81E0809367020895C5
:101F10008091240291E089278093240280936802B3
:101F2000882321F484E292E00E94090F1092670254
:101F30000895CF92DF92EF92FF920F931F938C013F
:101F400071EFC72E72E0D72EC60140E855E260E07F
:101F500070E00E94A910F801108269E1E62EF12CD0
:101F6000E00EF11EC70164E670E00E9419170C5DD7
:101F70001F4FC80164E670E00E941917C7010E9454
:101F8000EF19C8010E94EF19C60162E071E00E94DA
:101F900006171F910F91FF90EF90DF90CF9008955B
:101FA0000F931F9380E068E87FE043E050E00E94D9
:101FB000EF0F81EF92E040E855E260E070E00E94B0
:101FC000A91004E212E0C8010E94990FC8010E9402
:101FD000990FC8010E94990F1F910F9108958230A7
:101FE00000F5E82FF0E0EE0FFF1FE759FD4F71837A
:101FF0006083882319F08130A1F408C080916900C2
:102000008C7F842B80936900E89A08958091690001
:10201000440F551F440F551F837F842B8093690005
:10202000E99A08951F920F920FB60F9211242F93E1
:102030003F934F935F936F937F938F939F93AF9350
:10204000BF93EF93FF938091690290916A02892B6D
:1020500029F0E0916902F0916A020995FF91EF91F0
:10206000BF91AF919F918F917F916F915F914F91B0
:102070003F912F910F900FBE0F901F9018951F92B8
:102080000F920FB60F9211242F933F934F935F93AC
:102090006F937F938F939F93AF93BF93EF93FF9330
:1020A00080916B0290916C02892B29F0E0916B0278
:1020B000F0916C020995FF91EF91BF91AF919F91C3
:1020C0008F917F916F915F914F913F912F910F90E1
:1020D0000FBE0F901F9018951F920F920FB60F9280
:1020E00011242F933F934F935F936F937F938F931D
:1020F0009F93AF93BF93EF93FF934091C600E091FE
:10210000ED02F091EE02CF01019660E870E00E94CE
:102110000B1C9C018091EF029091F0022817390767
:1021200039F0E359FD4F40833093EE022093ED02E6
:10213000FF91EF91BF91AF919F918F917F916F919F
:102140005F914F913F912F910F900FBE0F901F9075
:1021500018952F923F924F925F926F927F928F923B
:102160009F92AF92BF92CF92DF92EF92FF920F9326
:102170001F93DF93CF93CDB7DEB72F970FB6F894A9
:10218000DEBF0FBECDBF9F878E871A012B01413462
:1021900082E458078FE0680780E078070CF03CC3C2
:1021A0003A014B01990C6608762C43014A833B8225
:1021B0004C825D826E826F826886698620E834E890
:1021C0004EE150E060E070E080E090E0510162019B
:1021D000E62CF62C062D162D0E949201E22EEA9492
:1021E000F1E0E21608F0F0E0232F2150E1E02317A0
:1021F00008F0E0E0FF2EF20E31E0F21608F030E0D9
:10220000E32B242F2150F1E0241708F0F0E00E2FEB
:10221000020F31E0021708F030E0F32B252F215098
:1022200041E0251708F040E01F2F120F31E0121790
:1022300008F030E0432B262F215051E0261708F0FC
:1022400050E0B42FB20F31E0B21708F030E0532B5A
:10225000272F215041E0271708F040E0A52FA20FBB
:1022600031E0A21708F030E0432B282F215031E055
:10227000281708F030E0F42FF20F81E0F21708F091
:1022800080E0E32FE82B9150E90F9701A8016B2F15
:102290007A2F8F2F9E2F52F52E2D2F5F81E02E1536
:1022A00008F080E0382F3F0D81E03F1508F080E016
:1022B000482F400F81E0401708F080E0582F510F61
:1022C00081E0511708F080E0682F6B0F81E06B17F9
:1022D00008F080E0782F7A0F81E07A1708F080E02C
:1022E0008F0F91E08F1708F090E09E0F01E00E94A1
:1022F0000D012A873B872095309540955095609534
:1023000070958095909504E00E948E0059016A01B5
:102310007B018C0120E034E244EF50E060E070E0AB
:1023200080E090E00E949201122FF32EE42ED52E31
:10233000A62E872E782E9C8704E00E948E00A32F65
:10234000B42F052FC62EB72E982E622E611AF1E0FB
:10235000261508F0F0E03A2F3F19E1E0A31708F046
:10236000E0E0F32EFF1A21E03F1508F020E0E22B19
:102370004B2F4E1931E0B41708F030E0E42EEE1A7E
:1023800021E04E1508F020E0322B502F5D1941E07E
:10239000051708F040E0D52ED31A21E05D1508F0AE
:1023A00020E0422B6C2D6A1931E0C61608F030E0AF
:1023B000C62EC41A21E06C1508F020E0322B7B2DCC
:1023C000781941E0B71608F040E0B72EB31A21E0C3
:1023D0007B1508F020E0422B892D871921E0981603
:1023E00008F020E0A82EA41A31E08A1508F030E0A9
:1023F000232B192FAC851A1B121B262D3F2D4E2D7A
:102400005D2D6C2D7B2D8A2D912F04E00E948E0076
:10241000992E260DE1E0261508F0E0E03F0DF1E0F1
:102420003F1508F0F0E06E2E630EE1E0631608F051
:10243000E0E0FE2B4E0DA1E04E1508F0A0E0FF2ECF
:10244000F40EE1E0F41608F0E0E0AE2B5D0DF1E0F3
:102450005D1508F0F0E00A2F050FE1E0051708F020
:10246000E0E0FE2B6C0DA1E06C1508F0A0E0BF2FA2
:10247000B60FE1E0B61708F0E0E0AE2B7B0DF1E01F
:102480007B1508F0F0E0A70FE1E0A71708F0E0E007
:10249000FE2B8A0D91E08A1508F090E0F80FE1E03C
:1024A000F81708F0E0E09E2B190D362D4F2D502F18
:1024B0006B2F7A2F8F2F910FAA80BB80CC80DD806D
:1024C000EE80FF80088519850E9492015901C9019B
:1024D00081509F4F1816190624F4BA2DB150B983B4
:1024E00003C0E1E0EA19E98320E039E04DE350E080
:1024F00060E070E080E090E0AA80BB80CC80DD806E
:10250000EE80FF80088519850E949201E22EEA94F0
:10251000F1E0E21608F0F0E0232F2150E1E023176C
:1025200008F0E0E0FF2EF20E31E0F21608F030E0A5
:10253000E32B242F2150F1E0241708F0F0E00E2FB8
:10254000020F31E0021708F030E0F32B252F215065
:1025500041E0251708F040E01F2F120F31E012175D
:1025600008F030E0432B262F215051E0261708F0C9
:1025700050E0B42FB20F31E0B21708F030E0532B27
:10258000272F215041E0271708F040E0A52FA20F88
:1025900031E0A21708F030E0432B282F215031E022
:1025A000281708F030E0F42FF20F81E0F21708F05E
:1025B00080E0E32FE82B9150E90F9701A8016B2FE2
:1025C0007A2F8F2F9E2F52F52E2D2F5F81E02E1503
:1025D00008F080E0382F3F0D81E03F1508F080E0E3
:1025E000482F400F81E0401708F080E0582F510F2E
:1025F00081E0511708F080E0682F6B0F81E06B17C6
:1026000008F080E0782F7A0F81E07A1708F080E0F8
:102610008F0F91E08F1708F090E09E0F01E00E946D
:102620000D01209530954095509560957095809559
:10263000909503E00E948E0059016A017B018C0194
:1026400020E034E244EF50E060E070E080E090E0B1
:102650000E949201122FF32EE42ED52EA62E872E45
:10266000782E9D8704E00E948E00A32FB42F052FA3
:10267000C62EB72E982E622E611AF1E0261508F0AC
:10268000F0E03A2F3F19E1E0A31708F0E0E0F32E65
:10269000FF1A21E03F1508F020E0E22B4B2F4E19E6
:1026A00031E0B41708F030E0E42EEE1A21E04E15C8
:1026B00008F020E0322B502F5D1941E0051708F09B
:1026C00040E0D52ED31A21E05D1508F020E0422B22
:1026D0006C2D6A1931E0C61608F030E0C62EC41A17
:1026E00021E06C1508F020E0322B7B2D781941E0B9
:1026F000B71608F040E0B72EB31A21E07B1508F0BA
:1027000020E0422B892D871921E0981608F020E05F
:10271000A82EA41A31E08A1508F030E0232B192FD7
:10272000FD851F1B121B262D3F2D4E2D5D2D6C2D63
:102730007B2D8A2D912F04E00E948E00992E260D6C
:10274000E1E0261508F0E0E03F0DF1E03F1508F06C
:10275000F0E06E2E630EE1E0631608F0E0E0FE2B81
:102760004E0DA1E04E1508F0A0E0FF2EF40EE1E0C2
:10277000F41608F0E0E0AE2B5D0DF1E05D1508F019
:10278000F0E00A2F050FE1E0051708F0E0E0FE2B6E
:102790006C0DA1E06C1508F0A0E0BF2FB60FE1E0D2
:1027A000B61708F0E0E0AE2B7B0DF1E07B1508F0EA
:1027B000F0E0A70FE1E0A71708F0E0E0FE2B8A0D9C
:1027C00091E08A1508F090E0F80FE1E0F81708F0C2
:1027D000E0E09E2B190D362D4F2D502F6B2F7A2FA9
:1027E0008F2F910FAA80BB80CC80DD80EE80FF8090
:1027F000088519850E9492015901C90181509F4F96
:10280000181619061CF48A2D815002C081E08A191D
:102810009981891708F0B3C0AE85BF851896ED91F0
:10282000FC91199781E090E052960C9002C0880FBD
:10283000991F0A94E2F7808342013101990C6608DE
:10284000762C430120E039E04DE350E060E070E099
:1028500080E090E051016201E62CF62C062D162D49
:102860000E949201E22EEA94F1E0E21608F0F0E014
:10287000232F2150E1E0231708F0E0E0FF2EF20EB5
:1028800031E0F21608F030E0E32B242F2150F1E084
:10289000241708F0F0E00E2F020F31E0021708F0C5
:1028A00030E0F32B252F215041E0251708F040E0C0
:1028B0001F2F120F31E0121708F030E0432B262FA4
:1028C000215051E0261708F050E0B42FB20F31E04C
:1028D000B21708F030E0532B272F215041E0271783
:1028E00008F040E0A52FA20F31E0A21708F030E079
:1028F000432B282F215031E0281708F030E0F42F27
:10290000F20F81E0F21708F080E0E32FE82B9150FE
:10291000E90F9701A8016B2F7A2F8F2F9E2F52F569
:102920002E2D2F5F81E02E1508F080E0382F3F0D0F
:1029300081E03F1508F080E0482F400F81E040170C
:1029400008F080E0582F510F81E0511708F080E027
:10295000682F6B0F81E06B1708F080E0782F7A0FFB
:1029600081E07A1708F080E08F0F91E08F1708F070
:1029700090E09E0F01E00E940D01822F0AC0AE85FB
:10298000BF851896ED91FC91199710828A859B85D9
:10299000392FAE85BF851496ED91FC911597308344
:1029A0001696ED91FC91179780831A96ED91FC9104
:1029B0001B97208141E050E0CA011E960C901E97A3
:1029C00002C0880F991F0A94E2F7282B20831A96D9
:1029D000ED91FC911B972081CA011F960C901F97C7
:1029E00002C0880F991F0A94E2F7282B20831A96B9
:1029F000ED91FC911B97808150960C9002C0440F82
:102A0000551F0A94E2F7842B80832F960FB6F89413
:102A1000DEBF0FBECDBFCF91DF911F910F91FF9011
:102A2000EF90DF90CF90BF90AF909F908F907F906E
:102A30006F905F904F903F902F900895DC01129619
:102A4000ED91FC911397E058FF4F8191919180583F
:102A50009F4F20813181821B930B60E870E00E94C0
:102A60000B1C0895DC011296ED91FC911397EE5723
:102A7000FF4F2081318192918291E058F04082177E
:102A8000930719F42FEF3FEF05C0E20FF31F80818A
:102A9000282F30E0C9010895CF93DF93DC0112960F
:102AA000ED91FC911397EF01CE57DF4F488159818B
:102AB000E058FF4F80819181E058F04084179507DE
:102AC00019F42FEF3FEF0CC0E40FF51F2081CA016E
:102AD000019660E870E00E940B1C9983888330E0C7
:102AE000C901DF91CF910895DC011296ED91FC911F
:102AF0001397EE57FF4F80819181929382930895AF
:102B0000FC01A085B18521898C9190E0022E02C044
:102B1000959587950A94E2F780FFF6CF0484F585B2
:102B2000E02D6083089585E192E09093F202809316
:102B3000F1028DE692E09093F4028093F30285EC2B
:102B400090E09093F6028093F50284EC90E09093ED
:102B5000F8028093F70280EC90E09093FA02809361
:102B6000F90281EC90E09093FC028093FB0286ECEA
:102B700090E09093FE028093FD0284E08093FF0238
:102B800083E08093000387E08093010385E08093D6
:102B9000020381E08093030308950F931F93CF9363
:102BA000DF938C01EB0109C02196D801ED91FC91D6
:102BB0000190F081E02DC801099568816623A1F795
:102BC000DF91CF911F910F910895EF92FF920F9394
:102BD0001F93CF93DF938C017B01EA010CC0D701D7
:102BE0006D917D01D801ED91FC910190F081E02D76
:102BF000C80109952197209791F7DF91CF911F91F7
:102C00000F91FF90EF900895DC01ED91FC9102800F
:102C1000F381E02D099508952F923F924F925F9294
:102C20006F927F928F929F92AF92BF92CF92DF92DC
:102C3000EF92FF920F931F93DF93CF93CDB7DEB741
:102C4000A0970FB6F894DEBF0FBECDBF1C016A017E
:102C50007B01411551056105710549F440E350E0E0
:102C600060E070E020E030E00E94A61656C08824A4
:102C700099245401422E55246624772401E010E063
:102C80000C0F1D1F080D191DC701B601A3019201EC
:102C90000E941E1CF80160830894811C911CA11CD9
:102CA000B11CC701B601A30192010E941E1CC901FB
:102CB000DA016C017D01C114D104E104F104F1F6E3
:102CC00081E0E82EF12CEC0EFD1EE80CF91C3E0113
:102CD0000894611C711CD501C4010197A109B109B7
:102CE0006C01C818D90816C0F601EE0DFF1D408111
:102CF0004A3010F4405D01C0495C552747FD5095AE
:102D0000652F752FC10120E030E00E94A6160894BF
:102D1000E108F1086E147F0439F7A0960FB6F89415
:102D2000DEBF0FBECDBFCF91DF911F910F91FF90FE
:102D3000EF90DF90CF90BF90AF909F908F907F905B
:102D40006F905F904F903F902F900895EF92FF9279
:102D50000F931F93CF93DF93EC017A018B01211521
:102D6000310541F4E881F9810190F081E02D642F73
:102D700009951BC02A303105B1F477FF10C04DE230
:102D800050E060E070E020E030E00E94A616109570
:102D90000095F094E094E11CF11C011D111DCE0181
:102DA000B801A7012AE00E940C16DF91CF911F9174
:102DB0000F91FF90EF900895EF92FF920F931F9362
:102DC0007B019A010027F7FC0095102FB801A7019D
:102DD0000E94A6161F910F91FF90EF9008950F93F8
:102DE0001F938C014DE050E060E070E020E030E0A7
:102DF0000E94A616C8014AE050E060E070E020E0C2
:102E000030E00E94A6161F910F9108950F931F9313
:102E10008C010E940416C8010E94EF161F910F91A9
:102E200008950E944B1B0E94D00F0E94180FFDCFE7
:102E300008950F931F938C01FC0180819181689FFD
:102E40009001699F300D789F300D112440E050E0D3
:102E500060E077E883E993E00E94401CF801238357
:102E600034834583568317821086118612861F91FC
:102E70000F9108950895E0EBF0E0908193689083BE
:102E800087708093B1001092B3008BE061E00E94E4
:102E9000851B0895E0EBF0E090819362908387704A
:102EA0008093B1001092B40083E061E00E94851B22
:102EB000089584B5836884BD17BC86E061E00E94F4
:102EC000851B089584B5836284BD18BC85E061E0EC
:102ED0000E94851B0895CF93DF938CE060E00E94F1
:102EE000AB1B88E060E00E94AB1BC7E0D0E084E051
:102EF00060E00E94AB1B8091050390E00C2E02C0A5
:102F0000959587950A94E2F780FF03C088E061E019
:102F100002C088E060E00E94AB1B84E061E00E9498
:102F2000AB1B21978FEFCF3FD80709F78CE061E00B
:102F30000E94AB1BDF91CF9108958F929F92AF9229
:102F4000BF92CF92DF92EF92FF920F931F93CF9396
:102F5000DF93062FE42EFC019280F1E09F1669F4C6
:102F6000F090B3001091B40064E0A62E52E0B52EAC
:102F700048E0D42E30E1C32E0FC082E0981611F045
:102F800000E062C1F7B418B520E2A22EBB24B394CE
:102F900090E8D92E80E4C82E80900503E82DF0E05B
:102FA0004A2D50E0CB2DD0E09E01242B352BC901BA
:102FB0008E239F238217930711F420E138C0AD2D93
:102FC000B0E09D012C2B3D2BC9018E239F2382173E
:102FD000930711F420E32BC06C2D70E09B012A2B8A
:102FE0003B2BC9018E239F238217930711F420E501
:102FF0001EC09B01242B352BC9018E239F238217D2
:10300000930711F420E713C04E235F23452B11F0E3
:1030100020E00DC0CE23DF23CD2B11F020E207C02E
:10302000AE23BF23AB2B11F420E601C020E4E1E086
:10303000EE1631F4822F82958F7080FF13C01EC070
:10304000F2E0EF16C1F4822F82958F7080FD0AC0E6
:1030500015C080599F4F282F2F7700E01FEFFF24C6
:10306000FA94B3C0822F90E0013011F48096F3CF30
:10307000805A9F4FF0CF83E0E81631F4822F90E022
:10308000013039F74096E7CFE8E0EE1611F000E0A6
:103090009CC0013009F04CC0203110F4205F2F7724
:1030A000FFEFFF1629F4822F82958370833039F069
:1030B0001F3F39F4822F82958370813011F4205E96
:1030C0002F77203111F02035C9F41F3F11F480E132
:1030D00003C0812F82958F708F5F61E10E94FF1B7B
:1030E000092F903111F41FEF03C0192F1295107F93
:1030F000F12EF094003109F068C018C01F3F11F4A0
:1031000080E103C0812F82958F70805F61E10E9412
:10311000FF1B092F903111F41FEF03C0192F1295D7
:10312000107FF12EF094002309F04FC0205E4CC0B8
:103130008FEFF81629F4822F82958370813039F051
:103140001F3F39F4822F82958370833011F4205A07
:103150002F77822F82958F7080FD02C020592F77A4
:10316000203111F02035C1F41F3F11F480E103C07C
:10317000812F82958F70805F61E10E94FF1B092F74
:10318000903111F41FEF03C0192F1295107FF12E0B
:10319000F0940023D1F417C01F3F11F480E103C065
:1031A000812F82958F708F5F61E10E94FF1B092F35
:1031B000903111F41FEF03C0192F1295107FF12EDB
:1031C000F094003111F4205A2F77E1E09E1629F493
:1031D000F092B3001093B40005C0F2E09F1611F412
:1031E000F7BC18BD4B2D4A293C2D3D29932F942B1C
:1031F0009095982190930503822F82958F7083304C
:10320000B1F0843028F4813071F0823070F409C05C
:10321000853081F0853060F0863079F0873081F438
:103220000BC09A290BC0942B09C09B2907C0DB282F
:103230009D2904C0932B02C0CA289C2990930503A2
:1032400084E093E00E946B17802FDF91CF911F9154
:103250000F91FF90EF90DF90CF90BF90AF909F9035
:103260008F9008955F926F927F928F929F92AF920C
:10327000BF92CF92DF92EF92FF920F931F93CF9363
:10328000DF93EC016B01542EA22EEB80FC800D81AC
:103290001E8123E0A216D1F416950795F794E794C2
:1032A000C801B70128EE33E040E050E00E941E1C48
:1032B00039014A01C801B70128EE33E040E050E08F
:1032C0000E941E1C7B018C01BB2440C088E0A81614
:1032D00039F7E4E016950795F794E794EA95D1F766
:1032E00074E0CC0CDD1C7A95E1F7DACFCE01652DC8
:1032F0004A2D0E949D17B82EB301C4010E94D01A16
:103300008F819885A985BA858E0D9F1DA01FB11F3D
:103310008F839887A987BA87885E9340A040B04082
:1033200090F061E070E080E090E00E94D01A8F8120
:103330009885A985BA85885E9340A040B0408F8368
:103340009887A987BA870894C108D108C114D10405
:1033500069F688E0A81699F52DC0CE01652D48E0E4
:103360000E949D17B82EB301C4010E94D01A8F810C
:103370009885A985BA858E0D9F1DA01FB11F8F83CB
:103380009887A987BA87885E9340A040B04090F0A4
:1033900061E070E080E090E00E94D01A8F81988513
:1033A000A985BA85885E9340A040B0408F839887F6
:1033B000A987BA87BB2019F080E1B81671F6DF91B2
:1033C000CF911F910F91FF90EF90DF90CF90BF9022
:1033D000AF909F908F907F906F905F900895FC01C9
:1033E0008281813051F480910503817E80930503B1
:1033F00084E093E00E946B170895823049F4809135
:1034000005038E718093050384E093E00E946B179F
:1034100008950F931F938C018CE061E00E94851B3F
:1034200087E061E00E94851B88E061E00E94851BC7
:1034300084E061E00E94851B10920503C8010E9490
:103440006B1787E060E00E94AB1B1F910F910895FE
:10345000EF92FF920F93CF93DF93EC017B01042F48
:1034600084E093E00E94091AF982E8820A8301301D
:1034700029F580910503817E8093050384E093E024
:103480000E946B178BE061E00E94851B83E061E086
:103490000E94851B8BE061E00E94AB1B83E061E032
:1034A0000E94AB1B81E00E943B1781E00E944A17FB
:1034B0008FEF8093B3008093B40024C0023011F5E5
:1034C000809105038E718093050384E093E00E9450
:1034D0006B1785E061E00E94851B86E061E00E9439
:1034E000851B85E061E00E94AB1B86E061E00E94E5
:1034F000AB1B81E00E94591781E00E9462178FEF99
:1035000087BD88BDDF91CF910F91FF90EF90089517
:103510001F920F920FB60F9211242F933F938F9308
:103520009F93AF93BF9380910A0390910B03A09157
:103530000C03B0910D0330910E030196A11DB11D36
:10354000232F2D5F2D3720F02D570196A11DB11D82
:1035500020930E0380930A0390930B03A0930C0314
:10356000B0930D038091060390910703A091080387
:10357000B09109030196A11DB11D8093060390939C
:103580000703A0930803B0930903BF91AF919F91E4
:103590008F913F912F910F900FBE0F901F90189514
:1035A0006F927F928F929F92AF92BF92CF92DF9253
:1035B000EF92FF920F931F93CF93DF933B014C0148
:1035C0003FB7F8948091060390910703A0910803F8
:1035D000B091090326B5A89B05C02F3F19F00196AD
:1035E000A11DB11D3FBFAA24B82EC92EDA2EA20EEE
:1035F000B11CC11CD11C9501A60160E070E080E007
:1036000090E002E00E948E00E90131C03FB7F894DB
:103610008091060390910703A0910803B0910903DC
:1036200026B5A89B05C02F3F19F00196A11DB11D1D
:103630003FBFAA24B82EC92EDA2EA20EB11CC11C7F
:10364000D11C9501A60160E070E080E090E002E00E
:103650000E948E00C9018C1B9D0B885E9340B0F2C6
:1036600008946108710881089108C851DC4F611401
:1036700071048104910451F6DF91CF911F910F9154
:10368000FF90EF90DF90CF90BF90AF909F908F9082
:103690007F906F900895789484B5826084BD84B5DE
:1036A000816084BD85B5826085BD85B5816085BD3D
:1036B000EEE6F0E0808181608083E1E8F0E08081E7
:1036C00082608083808181608083E0E8F0E0808197
:1036D00081608083E1EBF0E0808184608083E0EBB7
:1036E000F0E0808181608083EAE7F0E0808184609F
:1036F00080838081826080838081816080838081FB
:10370000806880831092C1000895482F50E0CA015C
:1037100086569F4FFC0124914A575F4FFA018491CE
:103720008823C1F0E82FF0E0EE0FFF1FE859FF4FAC
:10373000A591B491662341F49FB7F8948C9120959C
:1037400082238C939FBF08959FB7F8948C91822B0E
:103750008C939FBF0895482F50E0CA0182559F4F18
:10376000FC012491CA0186569F4FFC0134914A57AF
:103770005F4FFA019491992309F440C0222331F15B
:10378000233021F4809180008F7705C0243031F4FC
:10379000809180008F7D8093800018C0213019F4C3
:1037A00084B58F7704C0223021F484B58F7D84BD29
:1037B0000DC0263021F48091B0008F7705C02730EE
:1037C00029F48091B0008F7D8093B000E92FF0E064
:1037D000EE0FFF1FEE58FF4FA591B491662341F401
:1037E0009FB7F8948C91309583238C939FBF089555
:1037F0009FB7F8948C91832B8C939FBF0895991B4E
:1038000079E004C0991F961708F0961B881F7A95D7
:10381000C9F78095089597FB092E07260AD077FDF2
:1038200004D068D006D000201AF4709561957F4FBF
:103830000895F6F7909581959F4F0895A1E21A2E6D
:10384000AA1BBB1BFD010DC0AA1FBB1FEE1FFF1F44
:10385000A217B307E407F50720F0A21BB30BE40B94
:10386000F50B661F771F881F991F1A9469F76095DB
:103870007095809590959B01AC01BD01CF01089595
:1038800097FB092E05260ED057FD04D0D7DF0AD0AE
:10389000001C38F450954095309521953F4F4F4F7F
:1038A0005F4F0895F6F790958095709561957F4FDD
:1038B0008F4F9F4F0895629FD001739FF001829FA9
:1038C000E00DF11D649FE00DF11D929FF00D839FAF
:1038D000F00D749FF00D659FF00D9927729FB00D4C
:1038E000E11DF91F639FB00DE11DF91FBD01CF015F
:1038F00011240895AA1BBB1B51E107C0AA1FBB1FBF
:10390000A617B70710F0A61BB70B881F991F5A956B
:10391000A9F780959095BC01CD0108952F923F9213
:103920004F925F926F927F928F929F92AF92BF92CF
:10393000CF92DF92EF92FF920F931F93CF93DF937B
:10394000CDB7DEB7CA1BDB0B0FB6F894DEBF0FBED8
:10395000CDBF09942A88398848885F846E847D8425
:103960008C849B84AA84B984C884DF80EE80FD8027
:103970000C811B81AA81B981CE0FD11D0FB6F8949D
:10398000DEBF0FBECDBFED010895EE0FFF1F059006
:0A399000F491E02D0994F894FFCFA4
:10399A000A0048656C6C6F210000000000000000FE
:1039AA0000000102020303030304040404040404E0
:1039BA0004050505050505050505050505050505AE
:1039CA00050606060606060606060606060606068E
:1039DA00060606060606060606060606060606067D
:1039EA00060707070707070707070707070707075E
:1039FA00070707070707070707070707070707074D
:103A0A00070707070707070707070707070707073C
:103A1A00070707070707070707070707070707072C
:103A2A00070808080808080808080808080808080D
:103A3A0008080808080808080808080808080808FC
:103A4A0008080808080808080808080808080808EC
:103A5A0008080808080808080808080808080808DC
:103A6A0008080808080808080808080808080808CC
:103A7A0008080808080808080808080808080808BC
:103A8A0008080808080808080808080808080808AC
:103A9A00080808080808080808080808080808089C
:103AAA0008000000008015CD15E5151E154C15748B
:043ABA0015321500AC
:00000001FF
